{
  "_format": "hh-sol-artifact-1",
  "contractName": "WeirdNFT",
  "sourceName": "contracts/WeirdNFT.sol",
  "abi": [
    {
      "inputs": [
        {
          "internalType": "bytes32",
          "name": "_merkleRoot",
          "type": "bytes32"
        },
        {
          "internalType": "string",
          "name": "_baseURI",
          "type": "string"
        }
      ],
      "stateMutability": "nonpayable",
      "type": "constructor"
    },
    {
      "inputs": [],
      "name": "ERC721EnumerableForbiddenBatchMint",
      "type": "error"
    },
    {
      "inputs": [
        {
          "internalType": "address",
          "name": "sender",
          "type": "address"
        },
        {
          "internalType": "uint256",
          "name": "tokenId",
          "type": "uint256"
        },
        {
          "internalType": "address",
          "name": "owner",
          "type": "address"
        }
      ],
      "name": "ERC721IncorrectOwner",
      "type": "error"
    },
    {
      "inputs": [
        {
          "internalType": "address",
          "name": "operator",
          "type": "address"
        },
        {
          "internalType": "uint256",
          "name": "tokenId",
          "type": "uint256"
        }
      ],
      "name": "ERC721InsufficientApproval",
      "type": "error"
    },
    {
      "inputs": [
        {
          "internalType": "address",
          "name": "approver",
          "type": "address"
        }
      ],
      "name": "ERC721InvalidApprover",
      "type": "error"
    },
    {
      "inputs": [
        {
          "internalType": "address",
          "name": "operator",
          "type": "address"
        }
      ],
      "name": "ERC721InvalidOperator",
      "type": "error"
    },
    {
      "inputs": [
        {
          "internalType": "address",
          "name": "owner",
          "type": "address"
        }
      ],
      "name": "ERC721InvalidOwner",
      "type": "error"
    },
    {
      "inputs": [
        {
          "internalType": "address",
          "name": "receiver",
          "type": "address"
        }
      ],
      "name": "ERC721InvalidReceiver",
      "type": "error"
    },
    {
      "inputs": [
        {
          "internalType": "address",
          "name": "sender",
          "type": "address"
        }
      ],
      "name": "ERC721InvalidSender",
      "type": "error"
    },
    {
      "inputs": [
        {
          "internalType": "uint256",
          "name": "tokenId",
          "type": "uint256"
        }
      ],
      "name": "ERC721NonexistentToken",
      "type": "error"
    },
    {
      "inputs": [
        {
          "internalType": "address",
          "name": "owner",
          "type": "address"
        },
        {
          "internalType": "uint256",
          "name": "index",
          "type": "uint256"
        }
      ],
      "name": "ERC721OutOfBoundsIndex",
      "type": "error"
    },
    {
      "inputs": [],
      "name": "EnforcedPause",
      "type": "error"
    },
    {
      "inputs": [],
      "name": "ExpectedPause",
      "type": "error"
    },
    {
      "inputs": [
        {
          "internalType": "address",
          "name": "owner",
          "type": "address"
        }
      ],
      "name": "OwnableInvalidOwner",
      "type": "error"
    },
    {
      "inputs": [
        {
          "internalType": "address",
          "name": "account",
          "type": "address"
        }
      ],
      "name": "OwnableUnauthorizedAccount",
      "type": "error"
    },
    {
      "inputs": [],
      "name": "ReentrancyGuardReentrantCall",
      "type": "error"
    },
    {
      "anonymous": false,
      "inputs": [
        {
          "indexed": true,
          "internalType": "address",
          "name": "owner",
          "type": "address"
        },
        {
          "indexed": true,
          "internalType": "address",
          "name": "approved",
          "type": "address"
        },
        {
          "indexed": true,
          "internalType": "uint256",
          "name": "tokenId",
          "type": "uint256"
        }
      ],
      "name": "Approval",
      "type": "event"
    },
    {
      "anonymous": false,
      "inputs": [
        {
          "indexed": true,
          "internalType": "address",
          "name": "owner",
          "type": "address"
        },
        {
          "indexed": true,
          "internalType": "address",
          "name": "operator",
          "type": "address"
        },
        {
          "indexed": false,
          "internalType": "bool",
          "name": "approved",
          "type": "bool"
        }
      ],
      "name": "ApprovalForAll",
      "type": "event"
    },
    {
      "anonymous": false,
      "inputs": [
        {
          "indexed": true,
          "internalType": "address",
          "name": "previousOwner",
          "type": "address"
        },
        {
          "indexed": true,
          "internalType": "address",
          "name": "newOwner",
          "type": "address"
        }
      ],
      "name": "OwnershipTransferred",
      "type": "event"
    },
    {
      "anonymous": false,
      "inputs": [
        {
          "indexed": false,
          "internalType": "address",
          "name": "account",
          "type": "address"
        }
      ],
      "name": "Paused",
      "type": "event"
    },
    {
      "anonymous": false,
      "inputs": [
        {
          "indexed": true,
          "internalType": "address",
          "name": "from",
          "type": "address"
        },
        {
          "indexed": true,
          "internalType": "address",
          "name": "to",
          "type": "address"
        },
        {
          "indexed": true,
          "internalType": "uint256",
          "name": "tokenId",
          "type": "uint256"
        }
      ],
      "name": "Transfer",
      "type": "event"
    },
    {
      "anonymous": false,
      "inputs": [
        {
          "indexed": false,
          "internalType": "address",
          "name": "account",
          "type": "address"
        }
      ],
      "name": "Unpaused",
      "type": "event"
    },
    {
      "inputs": [
        {
          "internalType": "address",
          "name": "to",
          "type": "address"
        },
        {
          "internalType": "uint256",
          "name": "tokenId",
          "type": "uint256"
        }
      ],
      "name": "approve",
      "outputs": [],
      "stateMutability": "nonpayable",
      "type": "function"
    },
    {
      "inputs": [
        {
          "internalType": "address",
          "name": "owner",
          "type": "address"
        }
      ],
      "name": "balanceOf",
      "outputs": [
        {
          "internalType": "uint256",
          "name": "",
          "type": "uint256"
        }
      ],
      "stateMutability": "view",
      "type": "function"
    },
    {
      "inputs": [],
      "name": "baseURI",
      "outputs": [
        {
          "internalType": "string",
          "name": "",
          "type": "string"
        }
      ],
      "stateMutability": "view",
      "type": "function"
    },
    {
      "inputs": [
        {
          "internalType": "uint256",
          "name": "tokenId",
          "type": "uint256"
        }
      ],
      "name": "getApproved",
      "outputs": [
        {
          "internalType": "address",
          "name": "",
          "type": "address"
        }
      ],
      "stateMutability": "view",
      "type": "function"
    },
    {
      "inputs": [
        {
          "internalType": "address",
          "name": "owner",
          "type": "address"
        },
        {
          "internalType": "address",
          "name": "operator",
          "type": "address"
        }
      ],
      "name": "isApprovedForAll",
      "outputs": [
        {
          "internalType": "bool",
          "name": "",
          "type": "bool"
        }
      ],
      "stateMutability": "view",
      "type": "function"
    },
    {
      "inputs": [],
      "name": "merkleRoot",
      "outputs": [
        {
          "internalType": "bytes32",
          "name": "",
          "type": "bytes32"
        }
      ],
      "stateMutability": "view",
      "type": "function"
    },
    {
      "inputs": [],
      "name": "name",
      "outputs": [
        {
          "internalType": "string",
          "name": "",
          "type": "string"
        }
      ],
      "stateMutability": "view",
      "type": "function"
    },
    {
      "inputs": [],
      "name": "owner",
      "outputs": [
        {
          "internalType": "address",
          "name": "",
          "type": "address"
        }
      ],
      "stateMutability": "view",
      "type": "function"
    },
    {
      "inputs": [
        {
          "internalType": "uint256",
          "name": "tokenId",
          "type": "uint256"
        }
      ],
      "name": "ownerOf",
      "outputs": [
        {
          "internalType": "address",
          "name": "",
          "type": "address"
        }
      ],
      "stateMutability": "view",
      "type": "function"
    },
    {
      "inputs": [],
      "name": "pause",
      "outputs": [],
      "stateMutability": "nonpayable",
      "type": "function"
    },
    {
      "inputs": [],
      "name": "paused",
      "outputs": [
        {
          "internalType": "bool",
          "name": "",
          "type": "bool"
        }
      ],
      "stateMutability": "view",
      "type": "function"
    },
    {
      "inputs": [],
      "name": "renounceOwnership",
      "outputs": [],
      "stateMutability": "nonpayable",
      "type": "function"
    },
    {
      "inputs": [
        {
          "internalType": "address",
          "name": "to",
          "type": "address"
        },
        {
          "internalType": "bytes32[]",
          "name": "_proof",
          "type": "bytes32[]"
        }
      ],
      "name": "safeMint",
      "outputs": [
        {
          "internalType": "uint256",
          "name": "",
          "type": "uint256"
        }
      ],
      "stateMutability": "payable",
      "type": "function"
    },
    {
      "inputs": [
        {
          "internalType": "address",
          "name": "from",
          "type": "address"
        },
        {
          "internalType": "address",
          "name": "to",
          "type": "address"
        },
        {
          "internalType": "uint256",
          "name": "tokenId",
          "type": "uint256"
        }
      ],
      "name": "safeTransferFrom",
      "outputs": [],
      "stateMutability": "nonpayable",
      "type": "function"
    },
    {
      "inputs": [
        {
          "internalType": "address",
          "name": "from",
          "type": "address"
        },
        {
          "internalType": "address",
          "name": "to",
          "type": "address"
        },
        {
          "internalType": "uint256",
          "name": "tokenId",
          "type": "uint256"
        },
        {
          "internalType": "bytes",
          "name": "data",
          "type": "bytes"
        }
      ],
      "name": "safeTransferFrom",
      "outputs": [],
      "stateMutability": "nonpayable",
      "type": "function"
    },
    {
      "inputs": [
        {
          "internalType": "address",
          "name": "operator",
          "type": "address"
        },
        {
          "internalType": "bool",
          "name": "approved",
          "type": "bool"
        }
      ],
      "name": "setApprovalForAll",
      "outputs": [],
      "stateMutability": "nonpayable",
      "type": "function"
    },
    {
      "inputs": [
        {
          "internalType": "string",
          "name": "_baseURI",
          "type": "string"
        }
      ],
      "name": "setBaseURI",
      "outputs": [],
      "stateMutability": "nonpayable",
      "type": "function"
    },
    {
      "inputs": [
        {
          "internalType": "bytes4",
          "name": "interfaceId",
          "type": "bytes4"
        }
      ],
      "name": "supportsInterface",
      "outputs": [
        {
          "internalType": "bool",
          "name": "",
          "type": "bool"
        }
      ],
      "stateMutability": "view",
      "type": "function"
    },
    {
      "inputs": [],
      "name": "symbol",
      "outputs": [
        {
          "internalType": "string",
          "name": "",
          "type": "string"
        }
      ],
      "stateMutability": "view",
      "type": "function"
    },
    {
      "inputs": [
        {
          "internalType": "uint256",
          "name": "index",
          "type": "uint256"
        }
      ],
      "name": "tokenByIndex",
      "outputs": [
        {
          "internalType": "uint256",
          "name": "",
          "type": "uint256"
        }
      ],
      "stateMutability": "view",
      "type": "function"
    },
    {
      "inputs": [
        {
          "internalType": "address",
          "name": "owner",
          "type": "address"
        },
        {
          "internalType": "uint256",
          "name": "index",
          "type": "uint256"
        }
      ],
      "name": "tokenOfOwnerByIndex",
      "outputs": [
        {
          "internalType": "uint256",
          "name": "",
          "type": "uint256"
        }
      ],
      "stateMutability": "view",
      "type": "function"
    },
    {
      "inputs": [
        {
          "internalType": "uint256",
          "name": "_tokenId",
          "type": "uint256"
        }
      ],
      "name": "tokenURI",
      "outputs": [
        {
          "internalType": "string",
          "name": "",
          "type": "string"
        }
      ],
      "stateMutability": "view",
      "type": "function"
    },
    {
      "inputs": [],
      "name": "totalSupply",
      "outputs": [
        {
          "internalType": "uint256",
          "name": "",
          "type": "uint256"
        }
      ],
      "stateMutability": "view",
      "type": "function"
    },
    {
      "inputs": [
        {
          "internalType": "address",
          "name": "from",
          "type": "address"
        },
        {
          "internalType": "address",
          "name": "to",
          "type": "address"
        },
        {
          "internalType": "uint256",
          "name": "tokenId",
          "type": "uint256"
        }
      ],
      "name": "transferFrom",
      "outputs": [],
      "stateMutability": "nonpayable",
      "type": "function"
    },
    {
      "inputs": [
        {
          "internalType": "address",
          "name": "newOwner",
          "type": "address"
        }
      ],
      "name": "transferOwnership",
      "outputs": [],
      "stateMutability": "nonpayable",
      "type": "function"
    },
    {
      "inputs": [],
      "name": "unpause",
      "outputs": [],
      "stateMutability": "nonpayable",
      "type": "function"
    },
    {
      "inputs": [],
      "name": "withdraw",
      "outputs": [],
      "stateMutability": "nonpayable",
      "type": "function"
    }
  ],
  "bytecode": "0x608060405234801561001057600080fd5b5060405161218338038061218383398101604081905261002f91610147565b336040518060400160405280600881526020016715d95a5c9913919560c21b8152506040518060400160405280600381526020016215d49160ea1b815250816000908161007c91906102a7565b50600161008982826102a7565b5050506001600160a01b0381166100ba57604051631e4fbdf760e01b81526000600482015260240160405180910390fd5b6100c3816100df565b506001600c55600e6100d582826102a7565b5050600f55610365565b600b80546001600160a01b038381166001600160a01b0319831681179093556040519116919082907f8be0079c531659141344cd1fd0a4f28419497f9722a3daafe3b4186f6b6457e090600090a35050565b634e487b7160e01b600052604160045260246000fd5b6000806040838503121561015a57600080fd5b825160208401519092506001600160401b0381111561017857600080fd5b8301601f8101851361018957600080fd5b80516001600160401b038111156101a2576101a2610131565b604051601f8201601f19908116603f011681016001600160401b03811182821017156101d0576101d0610131565b6040528181528282016020018710156101e857600080fd5b60005b82811015610207576020818501810151838301820152016101eb565b506000602083830101528093505050509250929050565b600181811c9082168061023257607f821691505b60208210810361025257634e487b7160e01b600052602260045260246000fd5b50919050565b601f8211156102a257806000526020600020601f840160051c8101602085101561027f5750805b601f840160051c820191505b8181101561029f576000815560010161028b565b50505b505050565b81516001600160401b038111156102c0576102c0610131565b6102d4816102ce845461021e565b84610258565b6020601f82116001811461030857600083156102f05750848201515b600019600385901b1c1916600184901b17845561029f565b600084815260208120601f198516915b828110156103385787850151825560209485019460019092019101610318565b50848210156103565786840151600019600387901b60f8161c191681555b50505050600190811b01905550565b611e0f806103746000396000f3fe60806040526004361061019c5760003560e01c806355f804b3116100ec5780638da5cb5b1161008a578063b88d4fde11610064578063b88d4fde1461044e578063c87b56dd1461046e578063e985e9c51461048e578063f2fde38b146104ae57600080fd5b80638da5cb5b146103fb57806395d89b4114610419578063a22cb4651461042e57600080fd5b80636c0360eb116100c65780636c0360eb1461039c57806370a08231146103b1578063715018a6146103d15780638456cb59146103e657600080fd5b806355f804b3146103445780635c975abb146103645780636352211e1461037c57600080fd5b80632eb4a7ab116101595780633ccfd60b116101335780633ccfd60b146102da5780633f4ba83a146102ef57806342842e0e146103045780634f6ccce71461032457600080fd5b80632eb4a7ab146102915780632f745c59146102a7578063312237cd146102c757600080fd5b806301ffc9a7146101a157806306fdde03146101d6578063081812fc146101f8578063095ea7b31461023057806318160ddd1461025257806323b872dd14610271575b600080fd5b3480156101ad57600080fd5b506101c16101bc3660046117a5565b6104ce565b60405190151581526020015b60405180910390f35b3480156101e257600080fd5b506101eb6104df565b6040516101cd9190611812565b34801561020457600080fd5b50610218610213366004611825565b610571565b6040516001600160a01b0390911681526020016101cd565b34801561023c57600080fd5b5061025061024b36600461185a565b61059a565b005b34801561025e57600080fd5b506009545b6040519081526020016101cd565b34801561027d57600080fd5b5061025061028c366004611884565b6105a9565b34801561029d57600080fd5b50610263600f5481565b3480156102b357600080fd5b506102636102c236600461185a565b610639565b6102636102d53660046118c1565b61069e565b3480156102e657600080fd5b506102506107d1565b3480156102fb57600080fd5b50610250610878565b34801561031057600080fd5b5061025061031f366004611884565b610888565b34801561033057600080fd5b5061026361033f366004611825565b6108a8565b34801561035057600080fd5b5061025061035f3660046119d9565b610901565b34801561037057600080fd5b5060065460ff166101c1565b34801561038857600080fd5b50610218610397366004611825565b610915565b3480156103a857600080fd5b506101eb610920565b3480156103bd57600080fd5b506102636103cc366004611a22565b6109ae565b3480156103dd57600080fd5b506102506109f6565b3480156103f257600080fd5b50610250610a08565b34801561040757600080fd5b50600b546001600160a01b0316610218565b34801561042557600080fd5b506101eb610a18565b34801561043a57600080fd5b50610250610449366004611a3d565b610a27565b34801561045a57600080fd5b50610250610469366004611a79565b610a32565b34801561047a57600080fd5b506101eb610489366004611825565b610a4a565b34801561049a57600080fd5b506101c16104a9366004611af5565b610ae3565b3480156104ba57600080fd5b506102506104c9366004611a22565b610b11565b60006104d982610b4f565b92915050565b6060600080546104ee90611b28565b80601f016020809104026020016040519081016040528092919081815260200182805461051a90611b28565b80156105675780601f1061053c57610100808354040283529160200191610567565b820191906000526020600020905b81548152906001019060200180831161054a57829003601f168201915b5050505050905090565b600061057c82610b74565b506000828152600460205260409020546001600160a01b03166104d9565b6105a5828233610bad565b5050565b6001600160a01b0382166105d857604051633250574960e11b8152600060048201526024015b60405180910390fd5b60006105e5838333610bba565b9050836001600160a01b0316816001600160a01b031614610633576040516364283d7b60e01b81526001600160a01b03808616600483015260248201849052821660448201526064016105cf565b50505050565b6000610644836109ae565b82106106755760405163295f44f760e21b81526001600160a01b0384166004820152602481018390526044016105cf565b506001600160a01b03919091166000908152600760209081526040808320938352929052205490565b60006106a8610bcf565b6106b0610bf9565b6106bb848484610c1d565b6106f95760405162461bcd60e51b815260206004820152600f60248201526e139bdd0815da1a5d195b1a5cdd1959608a1b60448201526064016105cf565b606361070460095490565b61070f906001611b78565b11156107535760405162461bcd60e51b815260206004820152601360248201527213585e081cdd5c1c1b1e48195e18d959591959606a1b60448201526064016105cf565b662386f26fc1000034101561079d5760405162461bcd60e51b815260206004820152601060248201526f4e6f7420656e6f7567682066756e647360801b60448201526064016105cf565b600d8054600091826107ae83611b8b565b9190505590506107be8582610c95565b90506107ca6001600c55565b9392505050565b6107d9610bcf565b6107e1610caf565b604051600090339047908381818185875af1925050503d8060008114610823576040519150601f19603f3d011682016040523d82523d6000602084013e610828565b606091505b505090508061086b5760405162461bcd60e51b815260206004820152600f60248201526e15da5d1a191c985dc819985a5b1959608a1b60448201526064016105cf565b506108766001600c55565b565b610880610caf565b610876610cdc565b6108a383838360405180602001604052806000815250610a32565b505050565b60006108b360095490565b82106108dc5760405163295f44f760e21b815260006004820152602481018390526044016105cf565b600982815481106108ef576108ef611ba4565b90600052602060002001549050919050565b610909610caf565b600e6105a58282611c01565b60006104d982610b74565b600e805461092d90611b28565b80601f016020809104026020016040519081016040528092919081815260200182805461095990611b28565b80156109a65780601f1061097b576101008083540402835291602001916109a6565b820191906000526020600020905b81548152906001019060200180831161098957829003601f168201915b505050505081565b60006001600160a01b0382166109da576040516322718ad960e21b8152600060048201526024016105cf565b506001600160a01b031660009081526003602052604090205490565b6109fe610caf565b6108766000610d2e565b610a10610caf565b610876610d80565b6060600180546104ee90611b28565b6105a5338383610dbd565b610a3d8484846105a9565b6106333385858585610e5c565b6000818152600260205260409020546060906001600160a01b0316610ab15760405162461bcd60e51b815260206004820152601f60248201527f55524920717565727920666f72206e6f6e6578697374656e7420746f6b656e0060448201526064016105cf565b600e610abc83610f87565b604051602001610acd929190611cc0565b6040516020818303038152906040529050919050565b6001600160a01b03918216600090815260056020908152604080832093909416825291909152205460ff1690565b610b19610caf565b6001600160a01b038116610b4357604051631e4fbdf760e01b8152600060048201526024016105cf565b610b4c81610d2e565b50565b60006001600160e01b0319821663780e9d6360e01b14806104d957506104d98261101a565b6000818152600260205260408120546001600160a01b0316806104d957604051637e27328960e01b8152600481018490526024016105cf565b6108a3838383600161106a565b6000610bc7848484611170565b949350505050565b6002600c5403610bf257604051633ee5aeb560e01b815260040160405180910390fd5b6002600c55565b60065460ff16156108765760405163d93c066560e01b815260040160405180910390fd5b6000610bc783838080602002602001604051908101604052809392919081815260200183836020028082843760009201919091525050600f546040516bffffffffffffffffffffffff1960608b901b16602082015290925060340190506040516020818303038152906040528051906020012061123d565b6105a5828260405180602001604052806000815250611253565b600b546001600160a01b031633146108765760405163118cdaa760e01b81523360048201526024016105cf565b610ce461126b565b6006805460ff191690557f5db9ee0a495bf2e6ff9c91a7834c1ba4fdd244a5e8aa4e537bd38aeae4b073aa335b6040516001600160a01b03909116815260200160405180910390a1565b600b80546001600160a01b038381166001600160a01b0319831681179093556040519116919082907f8be0079c531659141344cd1fd0a4f28419497f9722a3daafe3b4186f6b6457e090600090a35050565b610d88610bf9565b6006805460ff191660011790557f62e78cea01bee320cd4e420270b5ea74000d11b0c9f74754ebdbfc544b05a258610d113390565b6001600160a01b038216610def57604051630b61174360e31b81526001600160a01b03831660048201526024016105cf565b6001600160a01b03838116600081815260056020908152604080832094871680845294825291829020805460ff191686151590811790915591519182527f17307eab39ab6107e8899845ad3d59bd9653f200f220920489ca2b5937696c31910160405180910390a3505050565b6001600160a01b0383163b15610f8057604051630a85bd0160e11b81526001600160a01b0384169063150b7a0290610e9e908890889087908790600401611d56565b6020604051808303816000875af1925050508015610ed9575060408051601f3d908101601f19168201909252610ed691810190611d93565b60015b610f42573d808015610f07576040519150601f19603f3d011682016040523d82523d6000602084013e610f0c565b606091505b508051600003610f3a57604051633250574960e11b81526001600160a01b03851660048201526024016105cf565b805181602001fd5b6001600160e01b03198116630a85bd0160e11b14610f7e57604051633250574960e11b81526001600160a01b03851660048201526024016105cf565b505b5050505050565b60606000610f948361128e565b600101905060008167ffffffffffffffff811115610fb457610fb4611949565b6040519080825280601f01601f191660200182016040528015610fde576020820181803683370190505b5090508181016020015b600019016f181899199a1a9b1b9c1cb0b131b232b360811b600a86061a8153600a8504945084610fe857509392505050565b60006001600160e01b031982166380ac58cd60e01b148061104b57506001600160e01b03198216635b5e139f60e01b145b806104d957506301ffc9a760e01b6001600160e01b03198316146104d9565b808061107e57506001600160a01b03821615155b1561114057600061108e84610b74565b90506001600160a01b038316158015906110ba5750826001600160a01b0316816001600160a01b031614155b80156110cd57506110cb8184610ae3565b155b156110f65760405163a9fbf51f60e01b81526001600160a01b03841660048201526024016105cf565b811561113e5783856001600160a01b0316826001600160a01b03167f8c5be1e5ebec7d5bd14f71427d1e84f3dd0314c0f7b2291e5b200ac8c7c3b92560405160405180910390a45b505b5050600090815260046020526040902080546001600160a01b0319166001600160a01b0392909216919091179055565b60008061117e858585611366565b90506001600160a01b0381166111db576111d684600980546000838152600a60205260408120829055600182018355919091527f6e1540171b6c0c960b71a7020d9f60077f6af931a8bbf590da0223dacf75c7af0155565b6111fe565b846001600160a01b0316816001600160a01b0316146111fe576111fe818561137b565b6001600160a01b03851661121a57611215846113fc565b610bc7565b846001600160a01b0316816001600160a01b031614610bc757610bc785856114ab565b60008261124a85846114fb565b14949350505050565b61125d838361153e565b6108a3336000858585610e5c565b60065460ff1661087657604051638dfc202b60e01b815260040160405180910390fd5b60008072184f03e93ff9f4daa797ed6e38ed64bf6a1f0160401b83106112cd5772184f03e93ff9f4daa797ed6e38ed64bf6a1f0160401b830492506040015b6d04ee2d6d415b85acef810000000083106112f9576d04ee2d6d415b85acef8100000000830492506020015b662386f26fc10000831061131757662386f26fc10000830492506010015b6305f5e100831061132f576305f5e100830492506008015b612710831061134357612710830492506004015b60648310611355576064830492506002015b600a83106104d95760010192915050565b6000611370610bf9565b610bc78484846115a3565b6000611386836109ae565b6000838152600860209081526040808320546001600160a01b03881684526007909252909120919250908183146113dd57600083815260208281526040808320548584528184208190558352600890915290208290555b6000938452600860209081526040808620869055938552525081205550565b60095460009061140e90600190611db0565b6000838152600a60205260408120546009805493945090928490811061143657611436611ba4565b90600052602060002001549050806009838154811061145757611457611ba4565b6000918252602080832090910192909255828152600a9091526040808220849055858252812055600980548061148f5761148f611dc3565b6001900381819060005260206000200160009055905550505050565b600060016114b8846109ae565b6114c29190611db0565b6001600160a01b039093166000908152600760209081526040808320868452825280832085905593825260089052919091209190915550565b600081815b84518110156115365761152c8286838151811061151f5761151f611ba4565b602002602001015161169c565b9150600101611500565b509392505050565b6001600160a01b03821661156857604051633250574960e11b8152600060048201526024016105cf565b600061157683836000610bba565b90506001600160a01b038116156108a3576040516339e3563760e11b8152600060048201526024016105cf565b6000828152600260205260408120546001600160a01b03908116908316156115d0576115d08184866116c8565b6001600160a01b0381161561160e576115ed60008560008061106a565b6001600160a01b038116600090815260036020526040902080546000190190555b6001600160a01b0385161561163d576001600160a01b0385166000908152600360205260409020805460010190555b60008481526002602052604080822080546001600160a01b0319166001600160a01b0389811691821790925591518793918516917fddf252ad1be2c89b69c2b068fc378daa952ba7f163c4a11628f55a4df523b3ef91a4949350505050565b60008183106116b85760008281526020849052604090206107ca565b5060009182526020526040902090565b6116d383838361172c565b6108a3576001600160a01b03831661170157604051637e27328960e01b8152600481018290526024016105cf565b60405163177e802f60e01b81526001600160a01b0383166004820152602481018290526044016105cf565b60006001600160a01b03831615801590610bc75750826001600160a01b0316846001600160a01b0316148061176657506117668484610ae3565b80610bc75750506000908152600460205260409020546001600160a01b03908116911614919050565b6001600160e01b031981168114610b4c57600080fd5b6000602082840312156117b757600080fd5b81356107ca8161178f565b60005b838110156117dd5781810151838201526020016117c5565b50506000910152565b600081518084526117fe8160208601602086016117c2565b601f01601f19169290920160200192915050565b6020815260006107ca60208301846117e6565b60006020828403121561183757600080fd5b5035919050565b80356001600160a01b038116811461185557600080fd5b919050565b6000806040838503121561186d57600080fd5b6118768361183e565b946020939093013593505050565b60008060006060848603121561189957600080fd5b6118a28461183e565b92506118b06020850161183e565b929592945050506040919091013590565b6000806000604084860312156118d657600080fd5b6118df8461183e565b9250602084013567ffffffffffffffff8111156118fb57600080fd5b8401601f8101861361190c57600080fd5b803567ffffffffffffffff81111561192357600080fd5b8660208260051b840101111561193857600080fd5b939660209190910195509293505050565b634e487b7160e01b600052604160045260246000fd5b60008067ffffffffffffffff84111561197a5761197a611949565b50604051601f19601f85018116603f0116810181811067ffffffffffffffff821117156119a9576119a9611949565b6040528381529050808284018510156119c157600080fd5b83836020830137600060208583010152509392505050565b6000602082840312156119eb57600080fd5b813567ffffffffffffffff811115611a0257600080fd5b8201601f81018413611a1357600080fd5b610bc78482356020840161195f565b600060208284031215611a3457600080fd5b6107ca8261183e565b60008060408385031215611a5057600080fd5b611a598361183e565b915060208301358015158114611a6e57600080fd5b809150509250929050565b60008060008060808587031215611a8f57600080fd5b611a988561183e565b9350611aa66020860161183e565b925060408501359150606085013567ffffffffffffffff811115611ac957600080fd5b8501601f81018713611ada57600080fd5b611ae98782356020840161195f565b91505092959194509250565b60008060408385031215611b0857600080fd5b611b118361183e565b9150611b1f6020840161183e565b90509250929050565b600181811c90821680611b3c57607f821691505b602082108103611b5c57634e487b7160e01b600052602260045260246000fd5b50919050565b634e487b7160e01b600052601160045260246000fd5b808201808211156104d9576104d9611b62565b600060018201611b9d57611b9d611b62565b5060010190565b634e487b7160e01b600052603260045260246000fd5b601f8211156108a357806000526020600020601f840160051c81016020851015611be15750805b601f840160051c820191505b81811015610f805760008155600101611bed565b815167ffffffffffffffff811115611c1b57611c1b611949565b611c2f81611c298454611b28565b84611bba565b6020601f821160018114611c635760008315611c4b5750848201515b600019600385901b1c1916600184901b178455610f80565b600084815260208120601f198516915b82811015611c935787850151825560209485019460019092019101611c73565b5084821015611cb15786840151600019600387901b60f8161c191681555b50505050600190811b01905550565b6000808454611cce81611b28565b600182168015611ce55760018114611cfa57611d2a565b60ff1983168652811515820286019350611d2a565b87600052602060002060005b83811015611d2257815488820152600190910190602001611d06565b505081860193505b5050508351611d3d8183602088016117c2565b64173539b7b760d91b9101908152600501949350505050565b6001600160a01b0385811682528416602082015260408101839052608060608201819052600090611d89908301846117e6565b9695505050505050565b600060208284031215611da557600080fd5b81516107ca8161178f565b818103818111156104d9576104d9611b62565b634e487b7160e01b600052603160045260246000fdfea2646970667358221220cbc4c8815ab116aa85e66e4d066a4948c7317935e139231e63dc15f3e7783e3a64736f6c634300081c0033",
  "linkReferences": {},
  "deployedLinkReferences": {}
}